{
  "_format": "hh-sol-artifact-1",
  "contractName": "DeTwitter",
  "sourceName": "contracts/DeTwitter.sol",
  "abi": [
    {
      "anonymous": false,
      "inputs": [
        {
          "indexed": false,
          "internalType": "uint256",
          "name": "id",
          "type": "uint256"
        },
        {
          "indexed": false,
          "internalType": "address",
          "name": "by",
          "type": "address"
        },
        {
          "indexed": false,
          "internalType": "address",
          "name": "to",
          "type": "address"
        }
      ],
      "name": "Liked",
      "type": "event"
    },
    {
      "anonymous": false,
      "inputs": [
        {
          "indexed": false,
          "internalType": "uint256",
          "name": "id",
          "type": "uint256"
        },
        {
          "indexed": false,
          "internalType": "address",
          "name": "by",
          "type": "address"
        },
        {
          "indexed": false,
          "internalType": "address",
          "name": "to",
          "type": "address"
        },
        {
          "indexed": false,
          "internalType": "uint256",
          "name": "amount",
          "type": "uint256"
        }
      ],
      "name": "Supported",
      "type": "event"
    },
    {
      "anonymous": false,
      "inputs": [
        {
          "indexed": false,
          "internalType": "uint256",
          "name": "id",
          "type": "uint256"
        },
        {
          "indexed": false,
          "internalType": "string",
          "name": "tweetContent",
          "type": "string"
        },
        {
          "indexed": false,
          "internalType": "address",
          "name": "tweetedBy",
          "type": "address"
        },
        {
          "indexed": false,
          "internalType": "uint256",
          "name": "twittedAt",
          "type": "uint256"
        }
      ],
      "name": "Tweeted",
      "type": "event"
    },
    {
      "inputs": [],
      "name": "getAllTweets",
      "outputs": [
        {
          "components": [
            {
              "internalType": "uint256",
              "name": "id",
              "type": "uint256"
            },
            {
              "internalType": "address payable",
              "name": "sender",
              "type": "address"
            },
            {
              "internalType": "string",
              "name": "message",
              "type": "string"
            },
            {
              "internalType": "uint256",
              "name": "timestamp",
              "type": "uint256"
            },
            {
              "internalType": "uint256",
              "name": "likes",
              "type": "uint256"
            },
            {
              "internalType": "uint256",
              "name": "balance",
              "type": "uint256"
            }
          ],
          "internalType": "struct DeTwitter.Tweet[]",
          "name": "",
          "type": "tuple[]"
        }
      ],
      "stateMutability": "view",
      "type": "function"
    },
    {
      "inputs": [
        {
          "internalType": "uint256",
          "name": "_id",
          "type": "uint256"
        }
      ],
      "name": "like",
      "outputs": [],
      "stateMutability": "nonpayable",
      "type": "function"
    },
    {
      "inputs": [
        {
          "internalType": "uint256",
          "name": "_id",
          "type": "uint256"
        },
        {
          "internalType": "uint256",
          "name": "_amount",
          "type": "uint256"
        }
      ],
      "name": "support",
      "outputs": [],
      "stateMutability": "payable",
      "type": "function"
    },
    {
      "inputs": [
        {
          "internalType": "string",
          "name": "_message",
          "type": "string"
        }
      ],
      "name": "tweet",
      "outputs": [],
      "stateMutability": "nonpayable",
      "type": "function"
    }
  ],
  "bytecode": "0x60806040526000805534801561001457600080fd5b50610e69806100246000396000f3fe60806040526004361061003f5760003560e01c806353256135146100445780639be56c671461006f578063e82935da1461008b578063fb46d4c5146100b4575b600080fd5b34801561005057600080fd5b506100596100dd565b6040516100669190610a10565b60405180910390f35b61008960048036038101906100849190610805565b61024c565b005b34801561009757600080fd5b506100b260048036038101906100ad91906107dc565b610412565b005b3480156100c057600080fd5b506100db60048036038101906100d6919061079b565b61051c565b005b60606001805480602002602001604051908101604052809291908181526020016000905b8282101561024357838290600052602060002090600602016040518060c0016040529081600082015481526020016001820160009054906101000a900473ffffffffffffffffffffffffffffffffffffffff1673ffffffffffffffffffffffffffffffffffffffff1673ffffffffffffffffffffffffffffffffffffffff16815260200160028201805461019490610cd2565b80601f01602080910402602001604051908101604052809291908181526020018280546101c090610cd2565b801561020d5780601f106101e25761010080835404028352916020019161020d565b820191906000526020600020905b8154815290600101906020018083116101f057829003601f168201915b50505050508152602001600382015481526020016004820154815260200160058201548152505081526020019060010190610101565b50505050905090565b600060018381548110610288577f4e487b7100000000000000000000000000000000000000000000000000000000600052603260045260246000fd5b906000526020600020906006020160010160009054906101000a900473ffffffffffffffffffffffffffffffffffffffff1690508073ffffffffffffffffffffffffffffffffffffffff166108fc839081150290604051600060405180830381858888f19350505050158015610302573d6000803e3d6000fd5b50816001848154811061033e577f4e487b7100000000000000000000000000000000000000000000000000000000600052603260045260246000fd5b9060005260206000209060060201600501600082825461035e9190610bb6565b925050819055507f3d9ceaf8e2684e934388b7e2f3a6c3ca3908728ea15ce8c997960f8bdf266e548333600186815481106103c2577f4e487b7100000000000000000000000000000000000000000000000000000000600052603260045260246000fd5b906000526020600020906006020160010160009054906101000a900473ffffffffffffffffffffffffffffffffffffffff16856040516104059493929190610a69565b60405180910390a1505050565b6001818154811061044c577f4e487b7100000000000000000000000000000000000000000000000000000000600052603260045260246000fd5b9060005260206000209060060201600401600081548092919061046e90610d35565b91905055507f8a565f66c8a382a64b63e3327c36c365618b2a6e61e904af12f5ca87ec264a098133600184815481106104d0577f4e487b7100000000000000000000000000000000000000000000000000000000600052603260045260246000fd5b906000526020600020906006020160010160009054906101000a900473ffffffffffffffffffffffffffffffffffffffff1660405161051193929190610a32565b60405180910390a150565b600033905060016040518060c0016040528060005481526020018373ffffffffffffffffffffffffffffffffffffffff16815260200184815260200142815260200160008152602001600081525090806001815401808255809150506001900390600052602060002090600602016000909190919091506000820151816000015560208201518160010160006101000a81548173ffffffffffffffffffffffffffffffffffffffff021916908373ffffffffffffffffffffffffffffffffffffffff160217905550604082015181600201908051906020019061060092919061067b565b50606082015181600301556080820151816004015560a0820151816005015550507f3f5062188f101b9ac92d79b6f191d73b0f0e7cd717a6d3a0a0b82518fdd0be3c6000548333426040516106589493929190610aae565b60405180910390a160008081548092919061067290610d35565b91905055505050565b82805461068790610cd2565b90600052602060002090601f0160209004810192826106a957600085556106f0565b82601f106106c257805160ff19168380011785556106f0565b828001600101855582156106f0579182015b828111156106ef5782518255916020019190600101906106d4565b5b5090506106fd9190610701565b5090565b5b8082111561071a576000816000905550600101610702565b5090565b600061073161072c84610b1f565b610afa565b90508281526020810184848401111561074957600080fd5b610754848285610c90565b509392505050565b600082601f83011261076d57600080fd5b813561077d84826020860161071e565b91505092915050565b60008135905061079581610e1c565b92915050565b6000602082840312156107ad57600080fd5b600082013567ffffffffffffffff8111156107c757600080fd5b6107d38482850161075c565b91505092915050565b6000602082840312156107ee57600080fd5b60006107fc84828501610786565b91505092915050565b6000806040838503121561081857600080fd5b600061082685828601610786565b925050602061083785828601610786565b9150509250929050565b600061084d8383610969565b905092915050565b61085e81610c5a565b82525050565b61086d81610c1e565b82525050565b61087c81610c0c565b82525050565b600061088d82610b60565b6108978185610b83565b9350836020820285016108a985610b50565b8060005b858110156108e557848403895281516108c68582610841565b94506108d183610b76565b925060208a019950506001810190506108ad565b50829750879550505050505092915050565b600061090282610b6b565b61090c8185610b94565b935061091c818560208601610c9f565b61092581610e0b565b840191505092915050565b600061093b82610b6b565b6109458185610ba5565b9350610955818560208601610c9f565b61095e81610e0b565b840191505092915050565b600060c08301600083015161098160008601826109f2565b5060208301516109946020860182610864565b50604083015184820360408601526109ac82826108f7565b91505060608301516109c160608601826109f2565b5060808301516109d460808601826109f2565b5060a08301516109e760a08601826109f2565b508091505092915050565b6109fb81610c50565b82525050565b610a0a81610c50565b82525050565b60006020820190508181036000830152610a2a8184610882565b905092915050565b6000606082019050610a476000830186610a01565b610a546020830185610873565b610a616040830184610855565b949350505050565b6000608082019050610a7e6000830187610a01565b610a8b6020830186610873565b610a986040830185610855565b610aa56060830184610a01565b95945050505050565b6000608082019050610ac36000830187610a01565b8181036020830152610ad58186610930565b9050610ae46040830185610873565b610af16060830184610a01565b95945050505050565b6000610b04610b15565b9050610b108282610d04565b919050565b6000604051905090565b600067ffffffffffffffff821115610b3a57610b39610ddc565b5b610b4382610e0b565b9050602081019050919050565b6000819050602082019050919050565b600081519050919050565b600081519050919050565b6000602082019050919050565b600082825260208201905092915050565b600082825260208201905092915050565b600082825260208201905092915050565b6000610bc182610c50565b9150610bcc83610c50565b9250827fffffffffffffffffffffffffffffffffffffffffffffffffffffffffffffffff03821115610c0157610c00610d7e565b5b828201905092915050565b6000610c1782610c30565b9050919050565b6000610c2982610c30565b9050919050565b600073ffffffffffffffffffffffffffffffffffffffff82169050919050565b6000819050919050565b6000610c6582610c6c565b9050919050565b6000610c7782610c7e565b9050919050565b6000610c8982610c30565b9050919050565b82818337600083830152505050565b60005b83811015610cbd578082015181840152602081019050610ca2565b83811115610ccc576000848401525b50505050565b60006002820490506001821680610cea57607f821691505b60208210811415610cfe57610cfd610dad565b5b50919050565b610d0d82610e0b565b810181811067ffffffffffffffff82111715610d2c57610d2b610ddc565b5b80604052505050565b6000610d4082610c50565b91507fffffffffffffffffffffffffffffffffffffffffffffffffffffffffffffffff821415610d7357610d72610d7e565b5b600182019050919050565b7f4e487b7100000000000000000000000000000000000000000000000000000000600052601160045260246000fd5b7f4e487b7100000000000000000000000000000000000000000000000000000000600052602260045260246000fd5b7f4e487b7100000000000000000000000000000000000000000000000000000000600052604160045260246000fd5b6000601f19601f8301169050919050565b610e2581610c50565b8114610e3057600080fd5b5056fea26469706673582212206d9fe73a8ddf5ac73d1af3c817b7ad2c5777f3e88b3e0d660f9741235d750ee464736f6c63430008040033",
  "linkReferences": {},
  "deployedLinkReferences": {}
}